:020000040000FA
:0400000000001628BE
:040004000034003490
:08000800FD000308FE000A08D8
:10001000FF000B1E0F288B1C0F288B1088137F08E6
:100020008A007E088300FD0E7D0E090083160313EF
:10003000880109123F20003047205E2083160313F9
:10004000811701130614861283120313861200000F
:10005000FF308800FE30A10003148B100B168B17A5
:100060000810C8306920C8306920C8306920C830FD
:100070006920C83069200814881763003028831667
:1000800003138E309F008512091007100800831299
:100090000313A0000830FA00A01B4F2851280714B2
:1000A00053280710532800008512A00D8516FA0B5F
:1000B0004C280910000009140000080083160313DF
:1000C00005118511051283120313051585150516F3
:1000D0000800F7001130F8006130F900F90B6E28C4
:0A00E000F80B6C28F70B6A280800E3
:02400E003A3F37
:00000001FF
