:020000040000FA
:08000000000008308A0000280E
:1010000083160313880109123D20003043205A2023
:1010100083120313FF3088000030F600F7012E2002
:1010200012307702031D1728831203130F30880034
:101030001828031783168C181B28831276088D0036
:1010400077088C0083168C130C158B1355308D008C
:10105000AA308D008C148B170C1108008312031713
:1010600076088D00831603178C130C140C18362881
:10107000831203170C08F700080083160313851268
:1010800009100710080083120313A0000830FC00A9
:10109000A01B4B284D2807144F2807104F2800008D
:1010A0008512A00D8516FC0B4828091000000914B4
:1010B00000000800831603138E309F000511851170
:1010C0000512831203130515851505160800F9008E
:0A10D00000000000F90B682808007A
:0410DA0000340034AA
:02400E003A3F37
:00000001FF
