:020000040000FA
:1000000000000228FE30A000AB30A100002100005B
:10001000FE30A000AB30A1000A210310A30C03188E
:100020001121A10CA20CA40B0D280000142100002A
:04003000000019288B
:040034000034003460
:100200000A210310A30C03181121A10CA20CA40BAA
:10021000012908000830A4002108A300A101A201BF
:1002200008002008A10708001030A4004030A600F4
:100230001530A5003330A800AB002130A700AC007A
:10024000A801A701AA01A9010310AB0CAC0C03186B
:100250003021A80CA70CAA0CA90CA40B2429080077
:0E0260002508A7070318A60A2608A807080005
:02400E003A3F37
:00000001FF
