:020000040000FA
:0400000000001028C4
:040004000034003490
:08000800FD000308FE000A08D8
:10001000FF007F088A007E088300FD0E7D0E090028
:100020008316031388010912912000309920B02013
:1000300083120313FF30A100210988006430BB2024
:100040000830FA00FA0B25282C280310A10C2109EE
:1000500088006430BB2022280830FA00FA0B3128CF
:1000600038280314A10C210988006430BB202E28F5
:100070000830FA00FA0B3D2844280310A10D21098D
:1000800088006430BB203A280830FA008030A10094
:100090000310FA0B4C285228A10C21098800643067
:1000A000BB204928FF3088006430BB200830FA00AC
:1000B0000130A1000310FA0B5E286428A10D21096C
:1000C00088006430BB205B28FF3088006430BB2090
:1000D0000430FA00FF30FB00FF30FC00FA0B7128FF
:1000E0007B280310FB0D0310FC0C7C087B058800AB
:1000F000C830BB206E282C30BB200430FA00003002
:10010000FB000030FC00FA0B862890280314FB0D3E
:100110000314FC0C7C087B048800C830BB208328B7
:100120001A28831603138E309F00851209100710BA
:10013000080083120313A0000830FA00A01BA128B6
:10014000A3280714A5280710A52800008512A00DD4
:100150008516FA0B9E2809100000091400000800FB
:100160008316031305118511051283120313051558
:10017000851505160800F7001130F8006130F90008
:0E018000F90BC028F80BBE28F70BBC280800AE
:02400E003A3F37
:00000001FF
